{
  "contracts/escrow.sol": {
    "Escrow": {
      "abi": [
        {
          "inputs": [
            {
              "internalType": "address",
              "name": "_relayer",
              "type": "address"
            }
          ],
          "stateMutability": "nonpayable",
          "type": "constructor"
        },
        {
          "anonymous": false,
          "inputs": [
            {
              "indexed": true,
              "internalType": "bytes32",
              "name": "escrowHash",
              "type": "bytes32"
            }
          ],
          "name": "NewEscrow",
          "type": "event"
        },
        {
          "anonymous": false,
          "inputs": [
            {
              "indexed": true,
              "internalType": "bytes32",
              "name": "escrowHash",
              "type": "bytes32"
            }
          ],
          "name": "ReleaseEscrow",
          "type": "event"
        },
        {
          "inputs": [
            {
              "internalType": "address",
              "name": "_nftContract1",
              "type": "address"
            },
            {
              "internalType": "int256",
              "name": "_tokenID1",
              "type": "int256"
            },
            {
              "internalType": "int256",
              "name": "_subnetID1",
              "type": "int256"
            },
            {
              "internalType": "address",
              "name": "_user2",
              "type": "address"
            },
            {
              "internalType": "address",
              "name": "_nftContract2",
              "type": "address"
            },
            {
              "internalType": "int256",
              "name": "_tokenID2",
              "type": "int256"
            },
            {
              "internalType": "int256",
              "name": "_subnet2",
              "type": "int256"
            }
          ],
          "name": "createEscrowTX",
          "outputs": [],
          "stateMutability": "nonpayable",
          "type": "function"
        },
        {
          "inputs": [
            {
              "internalType": "bytes32",
              "name": "_hash",
              "type": "bytes32"
            },
            {
              "internalType": "address",
              "name": "_user",
              "type": "address"
            }
          ],
          "name": "nftLocked",
          "outputs": [],
          "stateMutability": "nonpayable",
          "type": "function"
        }
      ],
      "evm": {
        "bytecode": {
          "linkReferences": {},
          "object": "608060405234801561001057600080fd5b5060405161073e38038061073e83398101604081905261002f91610054565b600080546001600160a01b0319166001600160a01b0392909216919091179055610082565b600060208284031215610065578081fd5b81516001600160a01b038116811461007b578182fd5b9392505050565b6106ad806100916000396000f3fe608060405234801561001057600080fd5b50600436106100365760003560e01c80633d824d801461003b578063547ccd0314610050575b600080fd5b61004e610049366004610521565b610063565b005b61004e61005e3660046104b8565b6102d3565b6000828152600160208181526040928390208351610100808201865282546001600160a01b03908116608080850191825296850154821660a0850152600285015460c0850152600385015460e0850152835286519586018752600484015481168652600584015481168686015260068401548688015260078401546060808801919091529483019590955260089092015460ff808216151596830196909652919091049093161515908301528151518116908316148061013c5750816001600160a01b03168160200151600001516001600160a01b0316145b6101615760405162461bcd60e51b81526004016101589061057d565b60405180910390fd5b8051516001600160a01b03838116911614156101bd576040810151156101995760405162461bcd60e51b8152600401610158906105bf565b6000838152600160208190526040909120600801805460ff191690911790556101fe565b6060810151156101df5760405162461bcd60e51b8152600401610158906105bf565b6000838152600160205260409020600801805461ff0019166101001790555b60008381526001602052604090206008015460ff1680156102355750600083815260016020526040902060080154610100900460ff165b156102ce5760405183907f42faaa75f23c9d6de440946be2f5168c086cf6e200aeebd8284fba4643e063d690600090a26000838152600160208190526040822080546001600160a01b03199081168255918101805483169055600281018390556003810183905560048101805483169055600581018054909216909155600681018290556007810191909155600801805461ffff191690555b505050565b60408051608080820183523382526001600160a01b038a81166020808501919091528385018b905260608085018b9052855180850187528a841681529289168383015282860188905282810187905285519384018652848452838201839052600084870181905290840181905294519394919361035491849143910161062d565b60408051601f198184030181529181528151602092830120600081815260019093529120549091506001600160a01b0316156103a25760405162461bcd60e51b8152600401610158906105f6565b60008181526001602081815260408084208651805182546001600160a01b03199081166001600160a01b03928316178455828601519684018054821697831697909717909655818401516002840155606091820151600384015588850151805160048501805489169184169190911790559485015160058401805490971691161790945582820151600682015591830151600783015585810151600890920180549387015160ff199094169215159290921761ff001916610100931515939093029290921790555182917fc731da081f34373f3c9f5dd9ae3bb3802706ee37760fb38599502bc34c0f24fd91a25050505050505050505050565b80356001600160a01b03811681146104b357600080fd5b919050565b600080600080600080600060e0888a0312156104d2578283fd5b6104db8861049c565b965060208801359550604088013594506104f76060890161049c565b93506105056080890161049c565b925060a0880135915060c0880135905092959891949750929550565b60008060408385031215610533578182fd5b823591506105436020840161049c565b90509250929050565b80516001600160a01b0390811683526020808301519091169083015260408082015190830152606090810151910152565b60208082526022908201527f41646472657373206e6f7420696e766f6c76656420696e20457363726f772054604082015261582160f01b606082015260800190565b60208082526019908201527f4e465420697320616c7265616479206c6f636b65642075702100000000000000604082015260600190565b60208082526018908201527f457363726f77545820616c726561647920657869737473210000000000000000604082015260600190565b60006101608201905061064182855161054c565b6020840151610653608084018261054c565b5060408401511515610100830152606090930151151561012082015261014001529056fea2646970667358221220ad99fb0aaf89be0f38c8b0c304800aba03754fc852d9363ecbc3624d13a7ba4764736f6c63430008000033",
          "opcodes": "PUSH1 0x80 PUSH1 0x40 MSTORE CALLVALUE DUP1 ISZERO PUSH2 0x10 JUMPI PUSH1 0x0 DUP1 REVERT JUMPDEST POP PUSH1 0x40 MLOAD PUSH2 0x73E CODESIZE SUB DUP1 PUSH2 0x73E DUP4 CODECOPY DUP2 ADD PUSH1 0x40 DUP2 SWAP1 MSTORE PUSH2 0x2F SWAP2 PUSH2 0x54 JUMP JUMPDEST PUSH1 0x0 DUP1 SLOAD PUSH1 0x1 PUSH1 0x1 PUSH1 0xA0 SHL SUB NOT AND PUSH1 0x1 PUSH1 0x1 PUSH1 0xA0 SHL SUB SWAP3 SWAP1 SWAP3 AND SWAP2 SWAP1 SWAP2 OR SWAP1 SSTORE PUSH2 0x82 JUMP JUMPDEST PUSH1 0x0 PUSH1 0x20 DUP3 DUP5 SUB SLT ISZERO PUSH2 0x65 JUMPI DUP1 DUP2 REVERT JUMPDEST DUP2 MLOAD PUSH1 0x1 PUSH1 0x1 PUSH1 0xA0 SHL SUB DUP2 AND DUP2 EQ PUSH2 0x7B JUMPI DUP2 DUP3 REVERT JUMPDEST SWAP4 SWAP3 POP POP POP JUMP JUMPDEST PUSH2 0x6AD DUP1 PUSH2 0x91 PUSH1 0x0 CODECOPY PUSH1 0x0 RETURN INVALID PUSH1 0x80 PUSH1 0x40 MSTORE CALLVALUE DUP1 ISZERO PUSH2 0x10 JUMPI PUSH1 0x0 DUP1 REVERT JUMPDEST POP PUSH1 0x4 CALLDATASIZE LT PUSH2 0x36 JUMPI PUSH1 0x0 CALLDATALOAD PUSH1 0xE0 SHR DUP1 PUSH4 0x3D824D80 EQ PUSH2 0x3B JUMPI DUP1 PUSH4 0x547CCD03 EQ PUSH2 0x50 JUMPI JUMPDEST PUSH1 0x0 DUP1 REVERT JUMPDEST PUSH2 0x4E PUSH2 0x49 CALLDATASIZE PUSH1 0x4 PUSH2 0x521 JUMP JUMPDEST PUSH2 0x63 JUMP JUMPDEST STOP JUMPDEST PUSH2 0x4E PUSH2 0x5E CALLDATASIZE PUSH1 0x4 PUSH2 0x4B8 JUMP JUMPDEST PUSH2 0x2D3 JUMP JUMPDEST PUSH1 0x0 DUP3 DUP2 MSTORE PUSH1 0x1 PUSH1 0x20 DUP2 DUP2 MSTORE PUSH1 0x40 SWAP3 DUP4 SWAP1 KECCAK256 DUP4 MLOAD PUSH2 0x100 DUP1 DUP3 ADD DUP7 MSTORE DUP3 SLOAD PUSH1 0x1 PUSH1 0x1 PUSH1 0xA0 SHL SUB SWAP1 DUP2 AND PUSH1 0x80 DUP1 DUP6 ADD SWAP2 DUP3 MSTORE SWAP7 DUP6 ADD SLOAD DUP3 AND PUSH1 0xA0 DUP6 ADD MSTORE PUSH1 0x2 DUP6 ADD SLOAD PUSH1 0xC0 DUP6 ADD MSTORE PUSH1 0x3 DUP6 ADD SLOAD PUSH1 0xE0 DUP6 ADD MSTORE DUP4 MSTORE DUP7 MLOAD SWAP6 DUP7 ADD DUP8 MSTORE PUSH1 0x4 DUP5 ADD SLOAD DUP2 AND DUP7 MSTORE PUSH1 0x5 DUP5 ADD SLOAD DUP2 AND DUP7 DUP7 ADD MSTORE PUSH1 0x6 DUP5 ADD SLOAD DUP7 DUP9 ADD MSTORE PUSH1 0x7 DUP5 ADD SLOAD PUSH1 0x60 DUP1 DUP9 ADD SWAP2 SWAP1 SWAP2 MSTORE SWAP5 DUP4 ADD SWAP6 SWAP1 SWAP6 MSTORE PUSH1 0x8 SWAP1 SWAP3 ADD SLOAD PUSH1 0xFF DUP1 DUP3 AND ISZERO ISZERO SWAP7 DUP4 ADD SWAP7 SWAP1 SWAP7 MSTORE SWAP2 SWAP1 SWAP2 DIV SWAP1 SWAP4 AND ISZERO ISZERO SWAP1 DUP4 ADD MSTORE DUP2 MLOAD MLOAD DUP2 AND SWAP1 DUP4 AND EQ DUP1 PUSH2 0x13C JUMPI POP DUP2 PUSH1 0x1 PUSH1 0x1 PUSH1 0xA0 SHL SUB AND DUP2 PUSH1 0x20 ADD MLOAD PUSH1 0x0 ADD MLOAD PUSH1 0x1 PUSH1 0x1 PUSH1 0xA0 SHL SUB AND EQ JUMPDEST PUSH2 0x161 JUMPI PUSH1 0x40 MLOAD PUSH3 0x461BCD PUSH1 0xE5 SHL DUP2 MSTORE PUSH1 0x4 ADD PUSH2 0x158 SWAP1 PUSH2 0x57D JUMP JUMPDEST PUSH1 0x40 MLOAD DUP1 SWAP2 SUB SWAP1 REVERT JUMPDEST DUP1 MLOAD MLOAD PUSH1 0x1 PUSH1 0x1 PUSH1 0xA0 SHL SUB DUP4 DUP2 AND SWAP2 AND EQ ISZERO PUSH2 0x1BD JUMPI PUSH1 0x40 DUP2 ADD MLOAD ISZERO PUSH2 0x199 JUMPI PUSH1 0x40 MLOAD PUSH3 0x461BCD PUSH1 0xE5 SHL DUP2 MSTORE PUSH1 0x4 ADD PUSH2 0x158 SWAP1 PUSH2 0x5BF JUMP JUMPDEST PUSH1 0x0 DUP4 DUP2 MSTORE PUSH1 0x1 PUSH1 0x20 DUP2 SWAP1 MSTORE PUSH1 0x40 SWAP1 SWAP2 KECCAK256 PUSH1 0x8 ADD DUP1 SLOAD PUSH1 0xFF NOT AND SWAP1 SWAP2 OR SWAP1 SSTORE PUSH2 0x1FE JUMP JUMPDEST PUSH1 0x60 DUP2 ADD MLOAD ISZERO PUSH2 0x1DF JUMPI PUSH1 0x40 MLOAD PUSH3 0x461BCD PUSH1 0xE5 SHL DUP2 MSTORE PUSH1 0x4 ADD PUSH2 0x158 SWAP1 PUSH2 0x5BF JUMP JUMPDEST PUSH1 0x0 DUP4 DUP2 MSTORE PUSH1 0x1 PUSH1 0x20 MSTORE PUSH1 0x40 SWAP1 KECCAK256 PUSH1 0x8 ADD DUP1 SLOAD PUSH2 0xFF00 NOT AND PUSH2 0x100 OR SWAP1 SSTORE JUMPDEST PUSH1 0x0 DUP4 DUP2 MSTORE PUSH1 0x1 PUSH1 0x20 MSTORE PUSH1 0x40 SWAP1 KECCAK256 PUSH1 0x8 ADD SLOAD PUSH1 0xFF AND DUP1 ISZERO PUSH2 0x235 JUMPI POP PUSH1 0x0 DUP4 DUP2 MSTORE PUSH1 0x1 PUSH1 0x20 MSTORE PUSH1 0x40 SWAP1 KECCAK256 PUSH1 0x8 ADD SLOAD PUSH2 0x100 SWAP1 DIV PUSH1 0xFF AND JUMPDEST ISZERO PUSH2 0x2CE JUMPI PUSH1 0x40 MLOAD DUP4 SWAP1 PUSH32 0x42FAAA75F23C9D6DE440946BE2F5168C086CF6E200AEEBD8284FBA4643E063D6 SWAP1 PUSH1 0x0 SWAP1 LOG2 PUSH1 0x0 DUP4 DUP2 MSTORE PUSH1 0x1 PUSH1 0x20 DUP2 SWAP1 MSTORE PUSH1 0x40 DUP3 KECCAK256 DUP1 SLOAD PUSH1 0x1 PUSH1 0x1 PUSH1 0xA0 SHL SUB NOT SWAP1 DUP2 AND DUP3 SSTORE SWAP2 DUP2 ADD DUP1 SLOAD DUP4 AND SWAP1 SSTORE PUSH1 0x2 DUP2 ADD DUP4 SWAP1 SSTORE PUSH1 0x3 DUP2 ADD DUP4 SWAP1 SSTORE PUSH1 0x4 DUP2 ADD DUP1 SLOAD DUP4 AND SWAP1 SSTORE PUSH1 0x5 DUP2 ADD DUP1 SLOAD SWAP1 SWAP3 AND SWAP1 SWAP2 SSTORE PUSH1 0x6 DUP2 ADD DUP3 SWAP1 SSTORE PUSH1 0x7 DUP2 ADD SWAP2 SWAP1 SWAP2 SSTORE PUSH1 0x8 ADD DUP1 SLOAD PUSH2 0xFFFF NOT AND SWAP1 SSTORE JUMPDEST POP POP POP JUMP JUMPDEST PUSH1 0x40 DUP1 MLOAD PUSH1 0x80 DUP1 DUP3 ADD DUP4 MSTORE CALLER DUP3 MSTORE PUSH1 0x1 PUSH1 0x1 PUSH1 0xA0 SHL SUB DUP11 DUP2 AND PUSH1 0x20 DUP1 DUP6 ADD SWAP2 SWAP1 SWAP2 MSTORE DUP4 DUP6 ADD DUP12 SWAP1 MSTORE PUSH1 0x60 DUP1 DUP6 ADD DUP12 SWAP1 MSTORE DUP6 MLOAD DUP1 DUP6 ADD DUP8 MSTORE DUP11 DUP5 AND DUP2 MSTORE SWAP3 DUP10 AND DUP4 DUP4 ADD MSTORE DUP3 DUP7 ADD DUP9 SWAP1 MSTORE DUP3 DUP2 ADD DUP8 SWAP1 MSTORE DUP6 MLOAD SWAP4 DUP5 ADD DUP7 MSTORE DUP5 DUP5 MSTORE DUP4 DUP3 ADD DUP4 SWAP1 MSTORE PUSH1 0x0 DUP5 DUP8 ADD DUP2 SWAP1 MSTORE SWAP1 DUP5 ADD DUP2 SWAP1 MSTORE SWAP5 MLOAD SWAP4 SWAP5 SWAP2 SWAP4 PUSH2 0x354 SWAP2 DUP5 SWAP2 NUMBER SWAP2 ADD PUSH2 0x62D JUMP JUMPDEST PUSH1 0x40 DUP1 MLOAD PUSH1 0x1F NOT DUP2 DUP5 SUB ADD DUP2 MSTORE SWAP2 DUP2 MSTORE DUP2 MLOAD PUSH1 0x20 SWAP3 DUP4 ADD KECCAK256 PUSH1 0x0 DUP2 DUP2 MSTORE PUSH1 0x1 SWAP1 SWAP4 MSTORE SWAP2 KECCAK256 SLOAD SWAP1 SWAP2 POP PUSH1 0x1 PUSH1 0x1 PUSH1 0xA0 SHL SUB AND ISZERO PUSH2 0x3A2 JUMPI PUSH1 0x40 MLOAD PUSH3 0x461BCD PUSH1 0xE5 SHL DUP2 MSTORE PUSH1 0x4 ADD PUSH2 0x158 SWAP1 PUSH2 0x5F6 JUMP JUMPDEST PUSH1 0x0 DUP2 DUP2 MSTORE PUSH1 0x1 PUSH1 0x20 DUP2 DUP2 MSTORE PUSH1 0x40 DUP1 DUP5 KECCAK256 DUP7 MLOAD DUP1 MLOAD DUP3 SLOAD PUSH1 0x1 PUSH1 0x1 PUSH1 0xA0 SHL SUB NOT SWAP1 DUP2 AND PUSH1 0x1 PUSH1 0x1 PUSH1 0xA0 SHL SUB SWAP3 DUP4 AND OR DUP5 SSTORE DUP3 DUP7 ADD MLOAD SWAP7 DUP5 ADD DUP1 SLOAD DUP3 AND SWAP8 DUP4 AND SWAP8 SWAP1 SWAP8 OR SWAP1 SWAP7 SSTORE DUP2 DUP5 ADD MLOAD PUSH1 0x2 DUP5 ADD SSTORE PUSH1 0x60 SWAP2 DUP3 ADD MLOAD PUSH1 0x3 DUP5 ADD SSTORE DUP9 DUP6 ADD MLOAD DUP1 MLOAD PUSH1 0x4 DUP6 ADD DUP1 SLOAD DUP10 AND SWAP2 DUP5 AND SWAP2 SWAP1 SWAP2 OR SWAP1 SSTORE SWAP5 DUP6 ADD MLOAD PUSH1 0x5 DUP5 ADD DUP1 SLOAD SWAP1 SWAP8 AND SWAP2 AND OR SWAP1 SWAP5 SSTORE DUP3 DUP3 ADD MLOAD PUSH1 0x6 DUP3 ADD SSTORE SWAP2 DUP4 ADD MLOAD PUSH1 0x7 DUP4 ADD SSTORE DUP6 DUP2 ADD MLOAD PUSH1 0x8 SWAP1 SWAP3 ADD DUP1 SLOAD SWAP4 DUP8 ADD MLOAD PUSH1 0xFF NOT SWAP1 SWAP5 AND SWAP3 ISZERO ISZERO SWAP3 SWAP1 SWAP3 OR PUSH2 0xFF00 NOT AND PUSH2 0x100 SWAP4 ISZERO ISZERO SWAP4 SWAP1 SWAP4 MUL SWAP3 SWAP1 SWAP3 OR SWAP1 SSTORE MLOAD DUP3 SWAP2 PUSH32 0xC731DA081F34373F3C9F5DD9AE3BB3802706EE37760FB38599502BC34C0F24FD SWAP2 LOG2 POP POP POP POP POP POP POP POP POP POP POP JUMP JUMPDEST DUP1 CALLDATALOAD PUSH1 0x1 PUSH1 0x1 PUSH1 0xA0 SHL SUB DUP2 AND DUP2 EQ PUSH2 0x4B3 JUMPI PUSH1 0x0 DUP1 REVERT JUMPDEST SWAP2 SWAP1 POP JUMP JUMPDEST PUSH1 0x0 DUP1 PUSH1 0x0 DUP1 PUSH1 0x0 DUP1 PUSH1 0x0 PUSH1 0xE0 DUP9 DUP11 SUB SLT ISZERO PUSH2 0x4D2 JUMPI DUP3 DUP4 REVERT JUMPDEST PUSH2 0x4DB DUP9 PUSH2 0x49C JUMP JUMPDEST SWAP7 POP PUSH1 0x20 DUP9 ADD CALLDATALOAD SWAP6 POP PUSH1 0x40 DUP9 ADD CALLDATALOAD SWAP5 POP PUSH2 0x4F7 PUSH1 0x60 DUP10 ADD PUSH2 0x49C JUMP JUMPDEST SWAP4 POP PUSH2 0x505 PUSH1 0x80 DUP10 ADD PUSH2 0x49C JUMP JUMPDEST SWAP3 POP PUSH1 0xA0 DUP9 ADD CALLDATALOAD SWAP2 POP PUSH1 0xC0 DUP9 ADD CALLDATALOAD SWAP1 POP SWAP3 SWAP6 SWAP9 SWAP2 SWAP5 SWAP8 POP SWAP3 SWAP6 POP JUMP JUMPDEST PUSH1 0x0 DUP1 PUSH1 0x40 DUP4 DUP6 SUB SLT ISZERO PUSH2 0x533 JUMPI DUP2 DUP3 REVERT JUMPDEST DUP3 CALLDATALOAD SWAP2 POP PUSH2 0x543 PUSH1 0x20 DUP5 ADD PUSH2 0x49C JUMP JUMPDEST SWAP1 POP SWAP3 POP SWAP3 SWAP1 POP JUMP JUMPDEST DUP1 MLOAD PUSH1 0x1 PUSH1 0x1 PUSH1 0xA0 SHL SUB SWAP1 DUP2 AND DUP4 MSTORE PUSH1 0x20 DUP1 DUP4 ADD MLOAD SWAP1 SWAP2 AND SWAP1 DUP4 ADD MSTORE PUSH1 0x40 DUP1 DUP3 ADD MLOAD SWAP1 DUP4 ADD MSTORE PUSH1 0x60 SWAP1 DUP2 ADD MLOAD SWAP2 ADD MSTORE JUMP JUMPDEST PUSH1 0x20 DUP1 DUP3 MSTORE PUSH1 0x22 SWAP1 DUP3 ADD MSTORE PUSH32 0x41646472657373206E6F7420696E766F6C76656420696E20457363726F772054 PUSH1 0x40 DUP3 ADD MSTORE PUSH2 0x5821 PUSH1 0xF0 SHL PUSH1 0x60 DUP3 ADD MSTORE PUSH1 0x80 ADD SWAP1 JUMP JUMPDEST PUSH1 0x20 DUP1 DUP3 MSTORE PUSH1 0x19 SWAP1 DUP3 ADD MSTORE PUSH32 0x4E465420697320616C7265616479206C6F636B65642075702100000000000000 PUSH1 0x40 DUP3 ADD MSTORE PUSH1 0x60 ADD SWAP1 JUMP JUMPDEST PUSH1 0x20 DUP1 DUP3 MSTORE PUSH1 0x18 SWAP1 DUP3 ADD MSTORE PUSH32 0x457363726F77545820616C726561647920657869737473210000000000000000 PUSH1 0x40 DUP3 ADD MSTORE PUSH1 0x60 ADD SWAP1 JUMP JUMPDEST PUSH1 0x0 PUSH2 0x160 DUP3 ADD SWAP1 POP PUSH2 0x641 DUP3 DUP6 MLOAD PUSH2 0x54C JUMP JUMPDEST PUSH1 0x20 DUP5 ADD MLOAD PUSH2 0x653 PUSH1 0x80 DUP5 ADD DUP3 PUSH2 0x54C JUMP JUMPDEST POP PUSH1 0x40 DUP5 ADD MLOAD ISZERO ISZERO PUSH2 0x100 DUP4 ADD MSTORE PUSH1 0x60 SWAP1 SWAP4 ADD MLOAD ISZERO ISZERO PUSH2 0x120 DUP3 ADD MSTORE PUSH2 0x140 ADD MSTORE SWAP1 JUMP INVALID LOG2 PUSH5 0x6970667358 0x22 SLT KECCAK256 0xAD SWAP10 0xFB EXP 0xAF DUP10 0xBE 0xF CODESIZE 0xC8 0xB0 0xC3 DIV DUP1 EXP 0xBA SUB PUSH22 0x4FC852D9363ECBC3624D13A7BA4764736F6C63430008 STOP STOP CALLER "
        },
        "methodIdentifiers": {
          "createEscrowTX(address,int256,int256,address,address,int256,int256)": "547ccd03",
          "nftLocked(bytes32,address)": "3d824d80"
        }
      }
    }
  }
}