{
  "contracts/escrow.sol": {
    "Escrow": {
      "abi": [
        {
          "inputs": [
            {
              "internalType": "address",
              "name": "_relayer",
              "type": "address"
            }
          ],
          "stateMutability": "nonpayable",
          "type": "constructor"
        },
        {
          "anonymous": false,
          "inputs": [
            {
              "indexed": true,
              "internalType": "bytes32",
              "name": "escrowHash",
              "type": "bytes32"
            }
          ],
          "name": "NewEscrow",
          "type": "event"
        },
        {
          "anonymous": false,
          "inputs": [
            {
              "indexed": true,
              "internalType": "bytes32",
              "name": "escrowHash",
              "type": "bytes32"
            }
          ],
          "name": "Refund",
          "type": "event"
        },
        {
          "anonymous": false,
          "inputs": [
            {
              "indexed": true,
              "internalType": "bytes32",
              "name": "escrowHash",
              "type": "bytes32"
            }
          ],
          "name": "ReleaseEscrow",
          "type": "event"
        },
        {
          "inputs": [
            {
              "internalType": "address",
              "name": "_nftContract1",
              "type": "address"
            },
            {
              "internalType": "uint256",
              "name": "_tokenID1",
              "type": "uint256"
            },
            {
              "internalType": "int256",
              "name": "_subnetID1",
              "type": "int256"
            },
            {
              "internalType": "address",
              "name": "_user2",
              "type": "address"
            },
            {
              "internalType": "address",
              "name": "_nftContract2",
              "type": "address"
            },
            {
              "internalType": "uint256",
              "name": "_tokenID2",
              "type": "uint256"
            },
            {
              "internalType": "int256",
              "name": "_subnet2",
              "type": "int256"
            }
          ],
          "name": "createEscrowTX",
          "outputs": [],
          "stateMutability": "nonpayable",
          "type": "function"
        },
        {
          "inputs": [
            {
              "internalType": "bytes32",
              "name": "_hash",
              "type": "bytes32"
            },
            {
              "internalType": "int256",
              "name": "_orderNum",
              "type": "int256"
            }
          ],
          "name": "getEscrow",
          "outputs": [
            {
              "internalType": "address",
              "name": "",
              "type": "address"
            },
            {
              "internalType": "address",
              "name": "",
              "type": "address"
            },
            {
              "internalType": "uint256",
              "name": "",
              "type": "uint256"
            },
            {
              "internalType": "int256",
              "name": "",
              "type": "int256"
            },
            {
              "internalType": "bool",
              "name": "",
              "type": "bool"
            }
          ],
          "stateMutability": "nonpayable",
          "type": "function"
        },
        {
          "inputs": [
            {
              "internalType": "bytes32",
              "name": "_hash",
              "type": "bytes32"
            },
            {
              "internalType": "address",
              "name": "_user",
              "type": "address"
            }
          ],
          "name": "nftLocked",
          "outputs": [],
          "stateMutability": "nonpayable",
          "type": "function"
        },
        {
          "inputs": [
            {
              "internalType": "bytes32",
              "name": "_hash",
              "type": "bytes32"
            }
          ],
          "name": "refund",
          "outputs": [],
          "stateMutability": "nonpayable",
          "type": "function"
        }
      ],
      "evm": {
        "bytecode": {
          "linkReferences": {},
          "object": "608060405234801561001057600080fd5b50604051610ad4380380610ad483398101604081905261002f91610054565b600080546001600160a01b0319166001600160a01b0392909216919091179055610082565b600060208284031215610065578081fd5b81516001600160a01b038116811461007b578182fd5b9392505050565b610a43806100916000396000f3fe608060405234801561001057600080fd5b506004361061004c5760003560e01c80633d824d8014610051578063515d1ca9146100665780637249fbb6146100795780638cb0f1911461008c575b600080fd5b61006461005f3660046107b5565b6100b9565b005b610064610074366004610734565b610353565b61006461008736600461079d565b61053c565b61009f61009a3660046107e0565b610605565b6040516100b0959493929190610832565b60405180910390f35b6000546001600160a01b031633146100ec5760405162461bcd60e51b81526004016100e39061098c565b60405180910390fd5b6000828152600160208181526040928390208351610100808201865282546001600160a01b03908116608080850191825296850154821660a0850152600285015460c0850152600385015460e0850152835286519586018752600484015481168652600584015481168686015260068401548688015260078401546060808801919091529483019590955260089092015460ff80821615159683019690965291909104909316151590830152815151811690831614806101c55750816001600160a01b03168160200151600001516001600160a01b0316145b6101e15760405162461bcd60e51b81526004016100e39061088a565b8051516001600160a01b038381169116141561023d576040810151156102195760405162461bcd60e51b81526004016100e3906108cc565b6000838152600160208190526040909120600801805460ff1916909117905561027e565b60608101511561025f5760405162461bcd60e51b81526004016100e3906108cc565b6000838152600160205260409020600801805461ff0019166101001790555b60008381526001602052604090206008015460ff1680156102b55750600083815260016020526040902060080154610100900460ff165b1561034e5760405183907f42faaa75f23c9d6de440946be2f5168c086cf6e200aeebd8284fba4643e063d690600090a26000838152600160208190526040822080546001600160a01b03199081168255918101805483169055600281018390556003810183905560048101805483169055600581018054909216909155600681018290556007810191909155600801805461ffff191690555b505050565b808514156103735760405162461bcd60e51b81526004016100e39061093a565b60408051608080820183523382526001600160a01b038a81166020808501919091528385018b905260608085018b9052855180850187528a84168152928916838301528286018890528281018790528551938401865284845283820183905260008487018190529084018190529451939491936103f49184914391016109c3565b60408051601f198184030181529181528151602092830120600081815260019093529120549091506001600160a01b0316156104425760405162461bcd60e51b81526004016100e390610903565b60008181526001602081815260408084208651805182546001600160a01b03199081166001600160a01b03928316178455828601519684018054821697831697909717909655818401516002840155606091820151600384015588850151805160048501805489169184169190911790559485015160058401805490971691161790945582820151600682015591830151600783015585810151600890920180549387015160ff199094169215159290921761ff001916610100931515939093029290921790555182917fc731da081f34373f3c9f5dd9ae3bb3802706ee37760fb38599502bc34c0f24fd91a25050505050505050505050565b6000818152600160205260409020546001600160a01b03166105705760405162461bcd60e51b81526004016100e390610863565b60405181907f3fbd469ec3a5ce074f975f76ce27e727ba21c99176917b97ae2e713695582a1290600090a26000908152600160208190526040822080546001600160a01b03199081168255918101805483169055600281018390556003810183905560048101805483169055600581018054909216909155600681018290556007810191909155600801805461ffff19169055565b60008281526001602081815260408084208151610100808201845282546001600160a01b03908116608080850191825297850154821660a0850152600285015460c0850152600385015460e08501528352845196870185526004840154811687526005840154168686015260068301548685015260078301546060808801919091529482019590955260089091015460ff80821615159383019390935293909304161515908201528190819081908190866106e4578051805160208201516040808401516060909401519401519198509650909450909250905061070e565b60208082015180519181015160408201516060928301519290940151929850965091945090925090505b9295509295909350565b80356001600160a01b038116811461072f57600080fd5b919050565b600080600080600080600060e0888a03121561074e578283fd5b61075788610718565b9650602088013595506040880135945061077360608901610718565b935061078160808901610718565b925060a0880135915060c0880135905092959891949750929550565b6000602082840312156107ae578081fd5b5035919050565b600080604083850312156107c7578182fd5b823591506107d760208401610718565b90509250929050565b600080604083850312156107f2578182fd5b50508035926020909101359150565b80516001600160a01b0390811683526020808301519091169083015260408082015190830152606090810151910152565b6001600160a01b03958616815293909416602084015260408301919091526060820152901515608082015260a00190565b6020808252600d908201526c496e76616c696420486173682160981b604082015260600190565b60208082526022908201527f41646472657373206e6f7420696e766f6c76656420696e20457363726f772054604082015261582160f01b606082015260800190565b60208082526019908201527f4e465420697320616c7265616479206c6f636b65642075702100000000000000604082015260600190565b60208082526018908201527f457363726f77545820616c726561647920657869737473210000000000000000604082015260600190565b60208082526032908201527f4e4654457363726f77206f6e6c7920737570706f72747320696e7465722d7375604082015271626e6574207472616e73616374696f6e732160701b606082015260800190565b60208082526018908201527f596f7520617265206e6f74207468652072656c61796572210000000000000000604082015260600190565b6000610160820190506109d7828551610801565b60208401516109e96080840182610801565b5060408401511515610100830152606090930151151561012082015261014001529056fea264697066735822122025ca3692fe9e145081bc884f6c3e9a49ac83d95321d0cdc5d9135f217ea3805464736f6c63430008000033",
          "opcodes": "PUSH1 0x80 PUSH1 0x40 MSTORE CALLVALUE DUP1 ISZERO PUSH2 0x10 JUMPI PUSH1 0x0 DUP1 REVERT JUMPDEST POP PUSH1 0x40 MLOAD PUSH2 0xAD4 CODESIZE SUB DUP1 PUSH2 0xAD4 DUP4 CODECOPY DUP2 ADD PUSH1 0x40 DUP2 SWAP1 MSTORE PUSH2 0x2F SWAP2 PUSH2 0x54 JUMP JUMPDEST PUSH1 0x0 DUP1 SLOAD PUSH1 0x1 PUSH1 0x1 PUSH1 0xA0 SHL SUB NOT AND PUSH1 0x1 PUSH1 0x1 PUSH1 0xA0 SHL SUB SWAP3 SWAP1 SWAP3 AND SWAP2 SWAP1 SWAP2 OR SWAP1 SSTORE PUSH2 0x82 JUMP JUMPDEST PUSH1 0x0 PUSH1 0x20 DUP3 DUP5 SUB SLT ISZERO PUSH2 0x65 JUMPI DUP1 DUP2 REVERT JUMPDEST DUP2 MLOAD PUSH1 0x1 PUSH1 0x1 PUSH1 0xA0 SHL SUB DUP2 AND DUP2 EQ PUSH2 0x7B JUMPI DUP2 DUP3 REVERT JUMPDEST SWAP4 SWAP3 POP POP POP JUMP JUMPDEST PUSH2 0xA43 DUP1 PUSH2 0x91 PUSH1 0x0 CODECOPY PUSH1 0x0 RETURN INVALID PUSH1 0x80 PUSH1 0x40 MSTORE CALLVALUE DUP1 ISZERO PUSH2 0x10 JUMPI PUSH1 0x0 DUP1 REVERT JUMPDEST POP PUSH1 0x4 CALLDATASIZE LT PUSH2 0x4C JUMPI PUSH1 0x0 CALLDATALOAD PUSH1 0xE0 SHR DUP1 PUSH4 0x3D824D80 EQ PUSH2 0x51 JUMPI DUP1 PUSH4 0x515D1CA9 EQ PUSH2 0x66 JUMPI DUP1 PUSH4 0x7249FBB6 EQ PUSH2 0x79 JUMPI DUP1 PUSH4 0x8CB0F191 EQ PUSH2 0x8C JUMPI JUMPDEST PUSH1 0x0 DUP1 REVERT JUMPDEST PUSH2 0x64 PUSH2 0x5F CALLDATASIZE PUSH1 0x4 PUSH2 0x7B5 JUMP JUMPDEST PUSH2 0xB9 JUMP JUMPDEST STOP JUMPDEST PUSH2 0x64 PUSH2 0x74 CALLDATASIZE PUSH1 0x4 PUSH2 0x734 JUMP JUMPDEST PUSH2 0x353 JUMP JUMPDEST PUSH2 0x64 PUSH2 0x87 CALLDATASIZE PUSH1 0x4 PUSH2 0x79D JUMP JUMPDEST PUSH2 0x53C JUMP JUMPDEST PUSH2 0x9F PUSH2 0x9A CALLDATASIZE PUSH1 0x4 PUSH2 0x7E0 JUMP JUMPDEST PUSH2 0x605 JUMP JUMPDEST PUSH1 0x40 MLOAD PUSH2 0xB0 SWAP6 SWAP5 SWAP4 SWAP3 SWAP2 SWAP1 PUSH2 0x832 JUMP JUMPDEST PUSH1 0x40 MLOAD DUP1 SWAP2 SUB SWAP1 RETURN JUMPDEST PUSH1 0x0 SLOAD PUSH1 0x1 PUSH1 0x1 PUSH1 0xA0 SHL SUB AND CALLER EQ PUSH2 0xEC JUMPI PUSH1 0x40 MLOAD PUSH3 0x461BCD PUSH1 0xE5 SHL DUP2 MSTORE PUSH1 0x4 ADD PUSH2 0xE3 SWAP1 PUSH2 0x98C JUMP JUMPDEST PUSH1 0x40 MLOAD DUP1 SWAP2 SUB SWAP1 REVERT JUMPDEST PUSH1 0x0 DUP3 DUP2 MSTORE PUSH1 0x1 PUSH1 0x20 DUP2 DUP2 MSTORE PUSH1 0x40 SWAP3 DUP4 SWAP1 KECCAK256 DUP4 MLOAD PUSH2 0x100 DUP1 DUP3 ADD DUP7 MSTORE DUP3 SLOAD PUSH1 0x1 PUSH1 0x1 PUSH1 0xA0 SHL SUB SWAP1 DUP2 AND PUSH1 0x80 DUP1 DUP6 ADD SWAP2 DUP3 MSTORE SWAP7 DUP6 ADD SLOAD DUP3 AND PUSH1 0xA0 DUP6 ADD MSTORE PUSH1 0x2 DUP6 ADD SLOAD PUSH1 0xC0 DUP6 ADD MSTORE PUSH1 0x3 DUP6 ADD SLOAD PUSH1 0xE0 DUP6 ADD MSTORE DUP4 MSTORE DUP7 MLOAD SWAP6 DUP7 ADD DUP8 MSTORE PUSH1 0x4 DUP5 ADD SLOAD DUP2 AND DUP7 MSTORE PUSH1 0x5 DUP5 ADD SLOAD DUP2 AND DUP7 DUP7 ADD MSTORE PUSH1 0x6 DUP5 ADD SLOAD DUP7 DUP9 ADD MSTORE PUSH1 0x7 DUP5 ADD SLOAD PUSH1 0x60 DUP1 DUP9 ADD SWAP2 SWAP1 SWAP2 MSTORE SWAP5 DUP4 ADD SWAP6 SWAP1 SWAP6 MSTORE PUSH1 0x8 SWAP1 SWAP3 ADD SLOAD PUSH1 0xFF DUP1 DUP3 AND ISZERO ISZERO SWAP7 DUP4 ADD SWAP7 SWAP1 SWAP7 MSTORE SWAP2 SWAP1 SWAP2 DIV SWAP1 SWAP4 AND ISZERO ISZERO SWAP1 DUP4 ADD MSTORE DUP2 MLOAD MLOAD DUP2 AND SWAP1 DUP4 AND EQ DUP1 PUSH2 0x1C5 JUMPI POP DUP2 PUSH1 0x1 PUSH1 0x1 PUSH1 0xA0 SHL SUB AND DUP2 PUSH1 0x20 ADD MLOAD PUSH1 0x0 ADD MLOAD PUSH1 0x1 PUSH1 0x1 PUSH1 0xA0 SHL SUB AND EQ JUMPDEST PUSH2 0x1E1 JUMPI PUSH1 0x40 MLOAD PUSH3 0x461BCD PUSH1 0xE5 SHL DUP2 MSTORE PUSH1 0x4 ADD PUSH2 0xE3 SWAP1 PUSH2 0x88A JUMP JUMPDEST DUP1 MLOAD MLOAD PUSH1 0x1 PUSH1 0x1 PUSH1 0xA0 SHL SUB DUP4 DUP2 AND SWAP2 AND EQ ISZERO PUSH2 0x23D JUMPI PUSH1 0x40 DUP2 ADD MLOAD ISZERO PUSH2 0x219 JUMPI PUSH1 0x40 MLOAD PUSH3 0x461BCD PUSH1 0xE5 SHL DUP2 MSTORE PUSH1 0x4 ADD PUSH2 0xE3 SWAP1 PUSH2 0x8CC JUMP JUMPDEST PUSH1 0x0 DUP4 DUP2 MSTORE PUSH1 0x1 PUSH1 0x20 DUP2 SWAP1 MSTORE PUSH1 0x40 SWAP1 SWAP2 KECCAK256 PUSH1 0x8 ADD DUP1 SLOAD PUSH1 0xFF NOT AND SWAP1 SWAP2 OR SWAP1 SSTORE PUSH2 0x27E JUMP JUMPDEST PUSH1 0x60 DUP2 ADD MLOAD ISZERO PUSH2 0x25F JUMPI PUSH1 0x40 MLOAD PUSH3 0x461BCD PUSH1 0xE5 SHL DUP2 MSTORE PUSH1 0x4 ADD PUSH2 0xE3 SWAP1 PUSH2 0x8CC JUMP JUMPDEST PUSH1 0x0 DUP4 DUP2 MSTORE PUSH1 0x1 PUSH1 0x20 MSTORE PUSH1 0x40 SWAP1 KECCAK256 PUSH1 0x8 ADD DUP1 SLOAD PUSH2 0xFF00 NOT AND PUSH2 0x100 OR SWAP1 SSTORE JUMPDEST PUSH1 0x0 DUP4 DUP2 MSTORE PUSH1 0x1 PUSH1 0x20 MSTORE PUSH1 0x40 SWAP1 KECCAK256 PUSH1 0x8 ADD SLOAD PUSH1 0xFF AND DUP1 ISZERO PUSH2 0x2B5 JUMPI POP PUSH1 0x0 DUP4 DUP2 MSTORE PUSH1 0x1 PUSH1 0x20 MSTORE PUSH1 0x40 SWAP1 KECCAK256 PUSH1 0x8 ADD SLOAD PUSH2 0x100 SWAP1 DIV PUSH1 0xFF AND JUMPDEST ISZERO PUSH2 0x34E JUMPI PUSH1 0x40 MLOAD DUP4 SWAP1 PUSH32 0x42FAAA75F23C9D6DE440946BE2F5168C086CF6E200AEEBD8284FBA4643E063D6 SWAP1 PUSH1 0x0 SWAP1 LOG2 PUSH1 0x0 DUP4 DUP2 MSTORE PUSH1 0x1 PUSH1 0x20 DUP2 SWAP1 MSTORE PUSH1 0x40 DUP3 KECCAK256 DUP1 SLOAD PUSH1 0x1 PUSH1 0x1 PUSH1 0xA0 SHL SUB NOT SWAP1 DUP2 AND DUP3 SSTORE SWAP2 DUP2 ADD DUP1 SLOAD DUP4 AND SWAP1 SSTORE PUSH1 0x2 DUP2 ADD DUP4 SWAP1 SSTORE PUSH1 0x3 DUP2 ADD DUP4 SWAP1 SSTORE PUSH1 0x4 DUP2 ADD DUP1 SLOAD DUP4 AND SWAP1 SSTORE PUSH1 0x5 DUP2 ADD DUP1 SLOAD SWAP1 SWAP3 AND SWAP1 SWAP2 SSTORE PUSH1 0x6 DUP2 ADD DUP3 SWAP1 SSTORE PUSH1 0x7 DUP2 ADD SWAP2 SWAP1 SWAP2 SSTORE PUSH1 0x8 ADD DUP1 SLOAD PUSH2 0xFFFF NOT AND SWAP1 SSTORE JUMPDEST POP POP POP JUMP JUMPDEST DUP1 DUP6 EQ ISZERO PUSH2 0x373 JUMPI PUSH1 0x40 MLOAD PUSH3 0x461BCD PUSH1 0xE5 SHL DUP2 MSTORE PUSH1 0x4 ADD PUSH2 0xE3 SWAP1 PUSH2 0x93A JUMP JUMPDEST PUSH1 0x40 DUP1 MLOAD PUSH1 0x80 DUP1 DUP3 ADD DUP4 MSTORE CALLER DUP3 MSTORE PUSH1 0x1 PUSH1 0x1 PUSH1 0xA0 SHL SUB DUP11 DUP2 AND PUSH1 0x20 DUP1 DUP6 ADD SWAP2 SWAP1 SWAP2 MSTORE DUP4 DUP6 ADD DUP12 SWAP1 MSTORE PUSH1 0x60 DUP1 DUP6 ADD DUP12 SWAP1 MSTORE DUP6 MLOAD DUP1 DUP6 ADD DUP8 MSTORE DUP11 DUP5 AND DUP2 MSTORE SWAP3 DUP10 AND DUP4 DUP4 ADD MSTORE DUP3 DUP7 ADD DUP9 SWAP1 MSTORE DUP3 DUP2 ADD DUP8 SWAP1 MSTORE DUP6 MLOAD SWAP4 DUP5 ADD DUP7 MSTORE DUP5 DUP5 MSTORE DUP4 DUP3 ADD DUP4 SWAP1 MSTORE PUSH1 0x0 DUP5 DUP8 ADD DUP2 SWAP1 MSTORE SWAP1 DUP5 ADD DUP2 SWAP1 MSTORE SWAP5 MLOAD SWAP4 SWAP5 SWAP2 SWAP4 PUSH2 0x3F4 SWAP2 DUP5 SWAP2 NUMBER SWAP2 ADD PUSH2 0x9C3 JUMP JUMPDEST PUSH1 0x40 DUP1 MLOAD PUSH1 0x1F NOT DUP2 DUP5 SUB ADD DUP2 MSTORE SWAP2 DUP2 MSTORE DUP2 MLOAD PUSH1 0x20 SWAP3 DUP4 ADD KECCAK256 PUSH1 0x0 DUP2 DUP2 MSTORE PUSH1 0x1 SWAP1 SWAP4 MSTORE SWAP2 KECCAK256 SLOAD SWAP1 SWAP2 POP PUSH1 0x1 PUSH1 0x1 PUSH1 0xA0 SHL SUB AND ISZERO PUSH2 0x442 JUMPI PUSH1 0x40 MLOAD PUSH3 0x461BCD PUSH1 0xE5 SHL DUP2 MSTORE PUSH1 0x4 ADD PUSH2 0xE3 SWAP1 PUSH2 0x903 JUMP JUMPDEST PUSH1 0x0 DUP2 DUP2 MSTORE PUSH1 0x1 PUSH1 0x20 DUP2 DUP2 MSTORE PUSH1 0x40 DUP1 DUP5 KECCAK256 DUP7 MLOAD DUP1 MLOAD DUP3 SLOAD PUSH1 0x1 PUSH1 0x1 PUSH1 0xA0 SHL SUB NOT SWAP1 DUP2 AND PUSH1 0x1 PUSH1 0x1 PUSH1 0xA0 SHL SUB SWAP3 DUP4 AND OR DUP5 SSTORE DUP3 DUP7 ADD MLOAD SWAP7 DUP5 ADD DUP1 SLOAD DUP3 AND SWAP8 DUP4 AND SWAP8 SWAP1 SWAP8 OR SWAP1 SWAP7 SSTORE DUP2 DUP5 ADD MLOAD PUSH1 0x2 DUP5 ADD SSTORE PUSH1 0x60 SWAP2 DUP3 ADD MLOAD PUSH1 0x3 DUP5 ADD SSTORE DUP9 DUP6 ADD MLOAD DUP1 MLOAD PUSH1 0x4 DUP6 ADD DUP1 SLOAD DUP10 AND SWAP2 DUP5 AND SWAP2 SWAP1 SWAP2 OR SWAP1 SSTORE SWAP5 DUP6 ADD MLOAD PUSH1 0x5 DUP5 ADD DUP1 SLOAD SWAP1 SWAP8 AND SWAP2 AND OR SWAP1 SWAP5 SSTORE DUP3 DUP3 ADD MLOAD PUSH1 0x6 DUP3 ADD SSTORE SWAP2 DUP4 ADD MLOAD PUSH1 0x7 DUP4 ADD SSTORE DUP6 DUP2 ADD MLOAD PUSH1 0x8 SWAP1 SWAP3 ADD DUP1 SLOAD SWAP4 DUP8 ADD MLOAD PUSH1 0xFF NOT SWAP1 SWAP5 AND SWAP3 ISZERO ISZERO SWAP3 SWAP1 SWAP3 OR PUSH2 0xFF00 NOT AND PUSH2 0x100 SWAP4 ISZERO ISZERO SWAP4 SWAP1 SWAP4 MUL SWAP3 SWAP1 SWAP3 OR SWAP1 SSTORE MLOAD DUP3 SWAP2 PUSH32 0xC731DA081F34373F3C9F5DD9AE3BB3802706EE37760FB38599502BC34C0F24FD SWAP2 LOG2 POP POP POP POP POP POP POP POP POP POP POP JUMP JUMPDEST PUSH1 0x0 DUP2 DUP2 MSTORE PUSH1 0x1 PUSH1 0x20 MSTORE PUSH1 0x40 SWAP1 KECCAK256 SLOAD PUSH1 0x1 PUSH1 0x1 PUSH1 0xA0 SHL SUB AND PUSH2 0x570 JUMPI PUSH1 0x40 MLOAD PUSH3 0x461BCD PUSH1 0xE5 SHL DUP2 MSTORE PUSH1 0x4 ADD PUSH2 0xE3 SWAP1 PUSH2 0x863 JUMP JUMPDEST PUSH1 0x40 MLOAD DUP2 SWAP1 PUSH32 0x3FBD469EC3A5CE074F975F76CE27E727BA21C99176917B97AE2E713695582A12 SWAP1 PUSH1 0x0 SWAP1 LOG2 PUSH1 0x0 SWAP1 DUP2 MSTORE PUSH1 0x1 PUSH1 0x20 DUP2 SWAP1 MSTORE PUSH1 0x40 DUP3 KECCAK256 DUP1 SLOAD PUSH1 0x1 PUSH1 0x1 PUSH1 0xA0 SHL SUB NOT SWAP1 DUP2 AND DUP3 SSTORE SWAP2 DUP2 ADD DUP1 SLOAD DUP4 AND SWAP1 SSTORE PUSH1 0x2 DUP2 ADD DUP4 SWAP1 SSTORE PUSH1 0x3 DUP2 ADD DUP4 SWAP1 SSTORE PUSH1 0x4 DUP2 ADD DUP1 SLOAD DUP4 AND SWAP1 SSTORE PUSH1 0x5 DUP2 ADD DUP1 SLOAD SWAP1 SWAP3 AND SWAP1 SWAP2 SSTORE PUSH1 0x6 DUP2 ADD DUP3 SWAP1 SSTORE PUSH1 0x7 DUP2 ADD SWAP2 SWAP1 SWAP2 SSTORE PUSH1 0x8 ADD DUP1 SLOAD PUSH2 0xFFFF NOT AND SWAP1 SSTORE JUMP JUMPDEST PUSH1 0x0 DUP3 DUP2 MSTORE PUSH1 0x1 PUSH1 0x20 DUP2 DUP2 MSTORE PUSH1 0x40 DUP1 DUP5 KECCAK256 DUP2 MLOAD PUSH2 0x100 DUP1 DUP3 ADD DUP5 MSTORE DUP3 SLOAD PUSH1 0x1 PUSH1 0x1 PUSH1 0xA0 SHL SUB SWAP1 DUP2 AND PUSH1 0x80 DUP1 DUP6 ADD SWAP2 DUP3 MSTORE SWAP8 DUP6 ADD SLOAD DUP3 AND PUSH1 0xA0 DUP6 ADD MSTORE PUSH1 0x2 DUP6 ADD SLOAD PUSH1 0xC0 DUP6 ADD MSTORE PUSH1 0x3 DUP6 ADD SLOAD PUSH1 0xE0 DUP6 ADD MSTORE DUP4 MSTORE DUP5 MLOAD SWAP7 DUP8 ADD DUP6 MSTORE PUSH1 0x4 DUP5 ADD SLOAD DUP2 AND DUP8 MSTORE PUSH1 0x5 DUP5 ADD SLOAD AND DUP7 DUP7 ADD MSTORE PUSH1 0x6 DUP4 ADD SLOAD DUP7 DUP6 ADD MSTORE PUSH1 0x7 DUP4 ADD SLOAD PUSH1 0x60 DUP1 DUP9 ADD SWAP2 SWAP1 SWAP2 MSTORE SWAP5 DUP3 ADD SWAP6 SWAP1 SWAP6 MSTORE PUSH1 0x8 SWAP1 SWAP2 ADD SLOAD PUSH1 0xFF DUP1 DUP3 AND ISZERO ISZERO SWAP4 DUP4 ADD SWAP4 SWAP1 SWAP4 MSTORE SWAP4 SWAP1 SWAP4 DIV AND ISZERO ISZERO SWAP1 DUP3 ADD MSTORE DUP2 SWAP1 DUP2 SWAP1 DUP2 SWAP1 DUP2 SWAP1 DUP7 PUSH2 0x6E4 JUMPI DUP1 MLOAD DUP1 MLOAD PUSH1 0x20 DUP3 ADD MLOAD PUSH1 0x40 DUP1 DUP5 ADD MLOAD PUSH1 0x60 SWAP1 SWAP5 ADD MLOAD SWAP5 ADD MLOAD SWAP2 SWAP9 POP SWAP7 POP SWAP1 SWAP5 POP SWAP1 SWAP3 POP SWAP1 POP PUSH2 0x70E JUMP JUMPDEST PUSH1 0x20 DUP1 DUP3 ADD MLOAD DUP1 MLOAD SWAP2 DUP2 ADD MLOAD PUSH1 0x40 DUP3 ADD MLOAD PUSH1 0x60 SWAP3 DUP4 ADD MLOAD SWAP3 SWAP1 SWAP5 ADD MLOAD SWAP3 SWAP9 POP SWAP7 POP SWAP2 SWAP5 POP SWAP1 SWAP3 POP SWAP1 POP JUMPDEST SWAP3 SWAP6 POP SWAP3 SWAP6 SWAP1 SWAP4 POP JUMP JUMPDEST DUP1 CALLDATALOAD PUSH1 0x1 PUSH1 0x1 PUSH1 0xA0 SHL SUB DUP2 AND DUP2 EQ PUSH2 0x72F JUMPI PUSH1 0x0 DUP1 REVERT JUMPDEST SWAP2 SWAP1 POP JUMP JUMPDEST PUSH1 0x0 DUP1 PUSH1 0x0 DUP1 PUSH1 0x0 DUP1 PUSH1 0x0 PUSH1 0xE0 DUP9 DUP11 SUB SLT ISZERO PUSH2 0x74E JUMPI DUP3 DUP4 REVERT JUMPDEST PUSH2 0x757 DUP9 PUSH2 0x718 JUMP JUMPDEST SWAP7 POP PUSH1 0x20 DUP9 ADD CALLDATALOAD SWAP6 POP PUSH1 0x40 DUP9 ADD CALLDATALOAD SWAP5 POP PUSH2 0x773 PUSH1 0x60 DUP10 ADD PUSH2 0x718 JUMP JUMPDEST SWAP4 POP PUSH2 0x781 PUSH1 0x80 DUP10 ADD PUSH2 0x718 JUMP JUMPDEST SWAP3 POP PUSH1 0xA0 DUP9 ADD CALLDATALOAD SWAP2 POP PUSH1 0xC0 DUP9 ADD CALLDATALOAD SWAP1 POP SWAP3 SWAP6 SWAP9 SWAP2 SWAP5 SWAP8 POP SWAP3 SWAP6 POP JUMP JUMPDEST PUSH1 0x0 PUSH1 0x20 DUP3 DUP5 SUB SLT ISZERO PUSH2 0x7AE JUMPI DUP1 DUP2 REVERT JUMPDEST POP CALLDATALOAD SWAP2 SWAP1 POP JUMP JUMPDEST PUSH1 0x0 DUP1 PUSH1 0x40 DUP4 DUP6 SUB SLT ISZERO PUSH2 0x7C7 JUMPI DUP2 DUP3 REVERT JUMPDEST DUP3 CALLDATALOAD SWAP2 POP PUSH2 0x7D7 PUSH1 0x20 DUP5 ADD PUSH2 0x718 JUMP JUMPDEST SWAP1 POP SWAP3 POP SWAP3 SWAP1 POP JUMP JUMPDEST PUSH1 0x0 DUP1 PUSH1 0x40 DUP4 DUP6 SUB SLT ISZERO PUSH2 0x7F2 JUMPI DUP2 DUP3 REVERT JUMPDEST POP POP DUP1 CALLDATALOAD SWAP3 PUSH1 0x20 SWAP1 SWAP2 ADD CALLDATALOAD SWAP2 POP JUMP JUMPDEST DUP1 MLOAD PUSH1 0x1 PUSH1 0x1 PUSH1 0xA0 SHL SUB SWAP1 DUP2 AND DUP4 MSTORE PUSH1 0x20 DUP1 DUP4 ADD MLOAD SWAP1 SWAP2 AND SWAP1 DUP4 ADD MSTORE PUSH1 0x40 DUP1 DUP3 ADD MLOAD SWAP1 DUP4 ADD MSTORE PUSH1 0x60 SWAP1 DUP2 ADD MLOAD SWAP2 ADD MSTORE JUMP JUMPDEST PUSH1 0x1 PUSH1 0x1 PUSH1 0xA0 SHL SUB SWAP6 DUP7 AND DUP2 MSTORE SWAP4 SWAP1 SWAP5 AND PUSH1 0x20 DUP5 ADD MSTORE PUSH1 0x40 DUP4 ADD SWAP2 SWAP1 SWAP2 MSTORE PUSH1 0x60 DUP3 ADD MSTORE SWAP1 ISZERO ISZERO PUSH1 0x80 DUP3 ADD MSTORE PUSH1 0xA0 ADD SWAP1 JUMP JUMPDEST PUSH1 0x20 DUP1 DUP3 MSTORE PUSH1 0xD SWAP1 DUP3 ADD MSTORE PUSH13 0x496E76616C6964204861736821 PUSH1 0x98 SHL PUSH1 0x40 DUP3 ADD MSTORE PUSH1 0x60 ADD SWAP1 JUMP JUMPDEST PUSH1 0x20 DUP1 DUP3 MSTORE PUSH1 0x22 SWAP1 DUP3 ADD MSTORE PUSH32 0x41646472657373206E6F7420696E766F6C76656420696E20457363726F772054 PUSH1 0x40 DUP3 ADD MSTORE PUSH2 0x5821 PUSH1 0xF0 SHL PUSH1 0x60 DUP3 ADD MSTORE PUSH1 0x80 ADD SWAP1 JUMP JUMPDEST PUSH1 0x20 DUP1 DUP3 MSTORE PUSH1 0x19 SWAP1 DUP3 ADD MSTORE PUSH32 0x4E465420697320616C7265616479206C6F636B65642075702100000000000000 PUSH1 0x40 DUP3 ADD MSTORE PUSH1 0x60 ADD SWAP1 JUMP JUMPDEST PUSH1 0x20 DUP1 DUP3 MSTORE PUSH1 0x18 SWAP1 DUP3 ADD MSTORE PUSH32 0x457363726F77545820616C726561647920657869737473210000000000000000 PUSH1 0x40 DUP3 ADD MSTORE PUSH1 0x60 ADD SWAP1 JUMP JUMPDEST PUSH1 0x20 DUP1 DUP3 MSTORE PUSH1 0x32 SWAP1 DUP3 ADD MSTORE PUSH32 0x4E4654457363726F77206F6E6C7920737570706F72747320696E7465722D7375 PUSH1 0x40 DUP3 ADD MSTORE PUSH18 0x626E6574207472616E73616374696F6E7321 PUSH1 0x70 SHL PUSH1 0x60 DUP3 ADD MSTORE PUSH1 0x80 ADD SWAP1 JUMP JUMPDEST PUSH1 0x20 DUP1 DUP3 MSTORE PUSH1 0x18 SWAP1 DUP3 ADD MSTORE PUSH32 0x596F7520617265206E6F74207468652072656C61796572210000000000000000 PUSH1 0x40 DUP3 ADD MSTORE PUSH1 0x60 ADD SWAP1 JUMP JUMPDEST PUSH1 0x0 PUSH2 0x160 DUP3 ADD SWAP1 POP PUSH2 0x9D7 DUP3 DUP6 MLOAD PUSH2 0x801 JUMP JUMPDEST PUSH1 0x20 DUP5 ADD MLOAD PUSH2 0x9E9 PUSH1 0x80 DUP5 ADD DUP3 PUSH2 0x801 JUMP JUMPDEST POP PUSH1 0x40 DUP5 ADD MLOAD ISZERO ISZERO PUSH2 0x100 DUP4 ADD MSTORE PUSH1 0x60 SWAP1 SWAP4 ADD MLOAD ISZERO ISZERO PUSH2 0x120 DUP3 ADD MSTORE PUSH2 0x140 ADD MSTORE SWAP1 JUMP INVALID LOG2 PUSH5 0x6970667358 0x22 SLT KECCAK256 0x25 0xCA CALLDATASIZE SWAP3 INVALID SWAP15 EQ POP DUP2 0xBC DUP9 0x4F PUSH13 0x3E9A49AC83D95321D0CDC5D913 0x5F 0x21 PUSH31 0xA3805464736F6C634300080000330000000000000000000000000000000000 "
        },
        "methodIdentifiers": {
          "createEscrowTX(address,uint256,int256,address,address,uint256,int256)": "515d1ca9",
          "getEscrow(bytes32,int256)": "8cb0f191",
          "nftLocked(bytes32,address)": "3d824d80",
          "refund(bytes32)": "7249fbb6"
        }
      }
    }
  }
}