{
  "_format": "hh-sol-artifact-1",
  "contractName": "Vault",
  "sourceName": "contracts/vault.sol",
  "abi": [
    {
      "inputs": [],
      "stateMutability": "nonpayable",
      "type": "constructor"
    },
    {
      "inputs": [
        {
          "internalType": "address",
          "name": "nftContract",
          "type": "address"
        },
        {
          "internalType": "uint256",
          "name": "tokenID",
          "type": "uint256"
        }
      ],
      "name": "sendNFT",
      "outputs": [],
      "stateMutability": "nonpayable",
      "type": "function"
    }
  ],
  "bytecode": "0x608060405234801561001057600080fd5b50600080546001600160a01b03191633179055610132806100326000396000f3fe6080604052348015600f57600080fd5b506004361060285760003560e01c8063d67262e514602d575b600080fd5b603c603836600460a4565b603e565b005b600054604051632142170760e11b81526001600160a01b03808516926342842e0e9260709230921690869060040160d8565b600060405180830381600087803b158015608957600080fd5b505af1158015609c573d6000803e3d6000fd5b505050505050565b6000806040838503121560b5578182fd5b82356001600160a01b038116811460ca578283fd5b946020939093013593505050565b6001600160a01b03938416815291909216602082015260408101919091526060019056fea2646970667358221220d42800f914223a0390e43a71085f77b9ea10e2d629dd17dacbd425ee3ed6f2b364736f6c63430008000033",
  "linkReferences": {},
  "deployedLinkReferences": {}
}