{
  "_format": "hh-sol-artifact-1",
  "contractName": "Escrow",
  "sourceName": "contracts/escrow.sol",
  "abi": [
    {
      "inputs": [
        {
          "internalType": "address",
          "name": "_relayer",
          "type": "address"
        }
      ],
      "stateMutability": "nonpayable",
      "type": "constructor"
    },
    {
      "anonymous": false,
      "inputs": [
        {
          "indexed": true,
          "internalType": "bytes32",
          "name": "escrowHash",
          "type": "bytes32"
        }
      ],
      "name": "NewEscrow",
      "type": "event"
    },
    {
      "anonymous": false,
      "inputs": [
        {
          "indexed": true,
          "internalType": "bytes32",
          "name": "escrowHash",
          "type": "bytes32"
        }
      ],
      "name": "Refund",
      "type": "event"
    },
    {
      "anonymous": false,
      "inputs": [
        {
          "indexed": true,
          "internalType": "bytes32",
          "name": "escrowHash",
          "type": "bytes32"
        }
      ],
      "name": "ReleaseEscrow",
      "type": "event"
    },
    {
      "inputs": [
        {
          "internalType": "address",
          "name": "_nftContract1",
          "type": "address"
        },
        {
          "internalType": "uint256",
          "name": "_tokenID1",
          "type": "uint256"
        },
        {
          "internalType": "int256",
          "name": "_subnetID1",
          "type": "int256"
        },
        {
          "internalType": "address",
          "name": "_user2",
          "type": "address"
        },
        {
          "internalType": "address",
          "name": "_nftContract2",
          "type": "address"
        },
        {
          "internalType": "uint256",
          "name": "_tokenID2",
          "type": "uint256"
        },
        {
          "internalType": "int256",
          "name": "_subnet2",
          "type": "int256"
        }
      ],
      "name": "createEscrowTX",
      "outputs": [],
      "stateMutability": "nonpayable",
      "type": "function"
    },
    {
      "inputs": [
        {
          "internalType": "bytes32",
          "name": "_hash",
          "type": "bytes32"
        },
        {
          "internalType": "int256",
          "name": "_orderNum",
          "type": "int256"
        }
      ],
      "name": "getEscrow",
      "outputs": [
        {
          "internalType": "address",
          "name": "",
          "type": "address"
        },
        {
          "internalType": "address",
          "name": "",
          "type": "address"
        },
        {
          "internalType": "uint256",
          "name": "",
          "type": "uint256"
        },
        {
          "internalType": "int256",
          "name": "",
          "type": "int256"
        },
        {
          "internalType": "bool",
          "name": "",
          "type": "bool"
        }
      ],
      "stateMutability": "nonpayable",
      "type": "function"
    },
    {
      "inputs": [
        {
          "internalType": "bytes32",
          "name": "_hash",
          "type": "bytes32"
        },
        {
          "internalType": "address",
          "name": "_user",
          "type": "address"
        }
      ],
      "name": "nftLocked",
      "outputs": [],
      "stateMutability": "nonpayable",
      "type": "function"
    },
    {
      "inputs": [
        {
          "internalType": "bytes32",
          "name": "_hash",
          "type": "bytes32"
        }
      ],
      "name": "refund",
      "outputs": [],
      "stateMutability": "nonpayable",
      "type": "function"
    }
  ],
  "bytecode": "0x608060405234801561001057600080fd5b50604051610ad4380380610ad483398101604081905261002f91610054565b600080546001600160a01b0319166001600160a01b0392909216919091179055610082565b600060208284031215610065578081fd5b81516001600160a01b038116811461007b578182fd5b9392505050565b610a43806100916000396000f3fe608060405234801561001057600080fd5b506004361061004c5760003560e01c80633d824d8014610051578063515d1ca9146100665780637249fbb6146100795780638cb0f1911461008c575b600080fd5b61006461005f3660046107b5565b6100b9565b005b610064610074366004610734565b610353565b61006461008736600461079d565b61053c565b61009f61009a3660046107e0565b610605565b6040516100b0959493929190610832565b60405180910390f35b6000546001600160a01b031633146100ec5760405162461bcd60e51b81526004016100e39061098c565b60405180910390fd5b6000828152600160208181526040928390208351610100808201865282546001600160a01b03908116608080850191825296850154821660a0850152600285015460c0850152600385015460e0850152835286519586018752600484015481168652600584015481168686015260068401548688015260078401546060808801919091529483019590955260089092015460ff80821615159683019690965291909104909316151590830152815151811690831614806101c55750816001600160a01b03168160200151600001516001600160a01b0316145b6101e15760405162461bcd60e51b81526004016100e39061088a565b8051516001600160a01b038381169116141561023d576040810151156102195760405162461bcd60e51b81526004016100e3906108cc565b6000838152600160208190526040909120600801805460ff1916909117905561027e565b60608101511561025f5760405162461bcd60e51b81526004016100e3906108cc565b6000838152600160205260409020600801805461ff0019166101001790555b60008381526001602052604090206008015460ff1680156102b55750600083815260016020526040902060080154610100900460ff165b1561034e5760405183907f42faaa75f23c9d6de440946be2f5168c086cf6e200aeebd8284fba4643e063d690600090a26000838152600160208190526040822080546001600160a01b03199081168255918101805483169055600281018390556003810183905560048101805483169055600581018054909216909155600681018290556007810191909155600801805461ffff191690555b505050565b808514156103735760405162461bcd60e51b81526004016100e39061093a565b60408051608080820183523382526001600160a01b038a81166020808501919091528385018b905260608085018b9052855180850187528a84168152928916838301528286018890528281018790528551938401865284845283820183905260008487018190529084018190529451939491936103f49184914391016109c3565b60408051601f198184030181529181528151602092830120600081815260019093529120549091506001600160a01b0316156104425760405162461bcd60e51b81526004016100e390610903565b60008181526001602081815260408084208651805182546001600160a01b03199081166001600160a01b03928316178455828601519684018054821697831697909717909655818401516002840155606091820151600384015588850151805160048501805489169184169190911790559485015160058401805490971691161790945582820151600682015591830151600783015585810151600890920180549387015160ff199094169215159290921761ff001916610100931515939093029290921790555182917fc731da081f34373f3c9f5dd9ae3bb3802706ee37760fb38599502bc34c0f24fd91a25050505050505050505050565b6000818152600160205260409020546001600160a01b03166105705760405162461bcd60e51b81526004016100e390610863565b60405181907f3fbd469ec3a5ce074f975f76ce27e727ba21c99176917b97ae2e713695582a1290600090a26000908152600160208190526040822080546001600160a01b03199081168255918101805483169055600281018390556003810183905560048101805483169055600581018054909216909155600681018290556007810191909155600801805461ffff19169055565b60008281526001602081815260408084208151610100808201845282546001600160a01b03908116608080850191825297850154821660a0850152600285015460c0850152600385015460e08501528352845196870185526004840154811687526005840154168686015260068301548685015260078301546060808801919091529482019590955260089091015460ff80821615159383019390935293909304161515908201528190819081908190866106e4578051805160208201516040808401516060909401519401519198509650909450909250905061070e565b60208082015180519181015160408201516060928301519290940151929850965091945090925090505b9295509295909350565b80356001600160a01b038116811461072f57600080fd5b919050565b600080600080600080600060e0888a03121561074e578283fd5b61075788610718565b9650602088013595506040880135945061077360608901610718565b935061078160808901610718565b925060a0880135915060c0880135905092959891949750929550565b6000602082840312156107ae578081fd5b5035919050565b600080604083850312156107c7578182fd5b823591506107d760208401610718565b90509250929050565b600080604083850312156107f2578182fd5b50508035926020909101359150565b80516001600160a01b0390811683526020808301519091169083015260408082015190830152606090810151910152565b6001600160a01b03958616815293909416602084015260408301919091526060820152901515608082015260a00190565b6020808252600d908201526c496e76616c696420486173682160981b604082015260600190565b60208082526022908201527f41646472657373206e6f7420696e766f6c76656420696e20457363726f772054604082015261582160f01b606082015260800190565b60208082526019908201527f4e465420697320616c7265616479206c6f636b65642075702100000000000000604082015260600190565b60208082526018908201527f457363726f77545820616c726561647920657869737473210000000000000000604082015260600190565b60208082526032908201527f4e4654457363726f77206f6e6c7920737570706f72747320696e7465722d7375604082015271626e6574207472616e73616374696f6e732160701b606082015260800190565b60208082526018908201527f596f7520617265206e6f74207468652072656c61796572210000000000000000604082015260600190565b6000610160820190506109d7828551610801565b60208401516109e96080840182610801565b5060408401511515610100830152606090930151151561012082015261014001529056fea264697066735822122025ca3692fe9e145081bc884f6c3e9a49ac83d95321d0cdc5d9135f217ea3805464736f6c63430008000033",
  "linkReferences": {},
  "deployedLinkReferences": {}
}