{
  "_format": "hh-sol-artifact-1",
  "contractName": "Escrow",
  "sourceName": "contracts/escrow.sol",
  "abi": [
    {
      "inputs": [
        {
          "internalType": "address",
          "name": "_relayer",
          "type": "address"
        }
      ],
      "stateMutability": "nonpayable",
      "type": "constructor"
    },
    {
      "anonymous": false,
      "inputs": [
        {
          "indexed": true,
          "internalType": "bytes32",
          "name": "escrowHash",
          "type": "bytes32"
        }
      ],
      "name": "NewEscrow",
      "type": "event"
    },
    {
      "anonymous": false,
      "inputs": [
        {
          "indexed": true,
          "internalType": "bytes32",
          "name": "escrowHash",
          "type": "bytes32"
        }
      ],
      "name": "ReleaseEscrow",
      "type": "event"
    },
    {
      "inputs": [
        {
          "internalType": "address",
          "name": "_nftContract1",
          "type": "address"
        },
        {
          "internalType": "int256",
          "name": "_tokenID1",
          "type": "int256"
        },
        {
          "internalType": "int256",
          "name": "_subnetID1",
          "type": "int256"
        },
        {
          "internalType": "address",
          "name": "_user2",
          "type": "address"
        },
        {
          "internalType": "address",
          "name": "_nftContract2",
          "type": "address"
        },
        {
          "internalType": "int256",
          "name": "_tokenID2",
          "type": "int256"
        },
        {
          "internalType": "int256",
          "name": "_subnet2",
          "type": "int256"
        }
      ],
      "name": "createEscrowTX",
      "outputs": [],
      "stateMutability": "nonpayable",
      "type": "function"
    },
    {
      "inputs": [
        {
          "internalType": "bytes32",
          "name": "_hash",
          "type": "bytes32"
        },
        {
          "internalType": "address",
          "name": "_user",
          "type": "address"
        }
      ],
      "name": "nftLocked",
      "outputs": [],
      "stateMutability": "nonpayable",
      "type": "function"
    }
  ],
  "bytecode": "0x608060405234801561001057600080fd5b5060405161073e38038061073e83398101604081905261002f91610054565b600080546001600160a01b0319166001600160a01b0392909216919091179055610082565b600060208284031215610065578081fd5b81516001600160a01b038116811461007b578182fd5b9392505050565b6106ad806100916000396000f3fe608060405234801561001057600080fd5b50600436106100365760003560e01c80633d824d801461003b578063547ccd0314610050575b600080fd5b61004e610049366004610521565b610063565b005b61004e61005e3660046104b8565b6102d3565b6000828152600160208181526040928390208351610100808201865282546001600160a01b03908116608080850191825296850154821660a0850152600285015460c0850152600385015460e0850152835286519586018752600484015481168652600584015481168686015260068401548688015260078401546060808801919091529483019590955260089092015460ff808216151596830196909652919091049093161515908301528151518116908316148061013c5750816001600160a01b03168160200151600001516001600160a01b0316145b6101615760405162461bcd60e51b81526004016101589061057d565b60405180910390fd5b8051516001600160a01b03838116911614156101bd576040810151156101995760405162461bcd60e51b8152600401610158906105bf565b6000838152600160208190526040909120600801805460ff191690911790556101fe565b6060810151156101df5760405162461bcd60e51b8152600401610158906105bf565b6000838152600160205260409020600801805461ff0019166101001790555b60008381526001602052604090206008015460ff1680156102355750600083815260016020526040902060080154610100900460ff165b156102ce5760405183907f42faaa75f23c9d6de440946be2f5168c086cf6e200aeebd8284fba4643e063d690600090a26000838152600160208190526040822080546001600160a01b03199081168255918101805483169055600281018390556003810183905560048101805483169055600581018054909216909155600681018290556007810191909155600801805461ffff191690555b505050565b60408051608080820183523382526001600160a01b038a81166020808501919091528385018b905260608085018b9052855180850187528a841681529289168383015282860188905282810187905285519384018652848452838201839052600084870181905290840181905294519394919361035491849143910161062d565b60408051601f198184030181529181528151602092830120600081815260019093529120549091506001600160a01b0316156103a25760405162461bcd60e51b8152600401610158906105f6565b60008181526001602081815260408084208651805182546001600160a01b03199081166001600160a01b03928316178455828601519684018054821697831697909717909655818401516002840155606091820151600384015588850151805160048501805489169184169190911790559485015160058401805490971691161790945582820151600682015591830151600783015585810151600890920180549387015160ff199094169215159290921761ff001916610100931515939093029290921790555182917fc731da081f34373f3c9f5dd9ae3bb3802706ee37760fb38599502bc34c0f24fd91a25050505050505050505050565b80356001600160a01b03811681146104b357600080fd5b919050565b600080600080600080600060e0888a0312156104d2578283fd5b6104db8861049c565b965060208801359550604088013594506104f76060890161049c565b93506105056080890161049c565b925060a0880135915060c0880135905092959891949750929550565b60008060408385031215610533578182fd5b823591506105436020840161049c565b90509250929050565b80516001600160a01b0390811683526020808301519091169083015260408082015190830152606090810151910152565b60208082526022908201527f41646472657373206e6f7420696e766f6c76656420696e20457363726f772054604082015261582160f01b606082015260800190565b60208082526019908201527f4e465420697320616c7265616479206c6f636b65642075702100000000000000604082015260600190565b60208082526018908201527f457363726f77545820616c726561647920657869737473210000000000000000604082015260600190565b60006101608201905061064182855161054c565b6020840151610653608084018261054c565b5060408401511515610100830152606090930151151561012082015261014001529056fea2646970667358221220ad99fb0aaf89be0f38c8b0c304800aba03754fc852d9363ecbc3624d13a7ba4764736f6c63430008000033",
  "linkReferences": {},
  "deployedLinkReferences": {}
}