{
  "_format": "hh-sol-artifact-1",
  "contractName": "Franchise",
  "sourceName": "contracts/franchise.sol",
  "abi": [
    {
      "inputs": [
        {
          "internalType": "address",
          "name": "_relayer",
          "type": "address"
        }
      ],
      "stateMutability": "nonpayable",
      "type": "constructor"
    },
    {
      "anonymous": false,
      "inputs": [
        {
          "indexed": true,
          "internalType": "bytes32",
          "name": "hsh",
          "type": "bytes32"
        }
      ],
      "name": "EscrowTXRecieved",
      "type": "event"
    },
    {
      "anonymous": false,
      "inputs": [
        {
          "indexed": true,
          "internalType": "bytes32",
          "name": "hsh",
          "type": "bytes32"
        },
        {
          "indexed": true,
          "internalType": "address",
          "name": "holder",
          "type": "address"
        }
      ],
      "name": "NFTLocked",
      "type": "event"
    },
    {
      "anonymous": false,
      "inputs": [
        {
          "indexed": true,
          "internalType": "bytes32",
          "name": "hsh",
          "type": "bytes32"
        }
      ],
      "name": "RefundComplete",
      "type": "event"
    },
    {
      "inputs": [
        {
          "internalType": "bytes32",
          "name": "_hash",
          "type": "bytes32"
        }
      ],
      "name": "executeRefund",
      "outputs": [],
      "stateMutability": "nonpayable",
      "type": "function"
    },
    {
      "inputs": [
        {
          "internalType": "bytes32",
          "name": "_hash",
          "type": "bytes32"
        }
      ],
      "name": "lockNFT",
      "outputs": [],
      "stateMutability": "nonpayable",
      "type": "function"
    },
    {
      "inputs": [
        {
          "internalType": "bytes32",
          "name": "_hash",
          "type": "bytes32"
        },
        {
          "internalType": "address",
          "name": "_user",
          "type": "address"
        },
        {
          "internalType": "address",
          "name": "_to",
          "type": "address"
        },
        {
          "internalType": "address",
          "name": "_nftContract",
          "type": "address"
        },
        {
          "internalType": "uint256",
          "name": "tokenID",
          "type": "uint256"
        }
      ],
      "name": "recieveEscrowTX",
      "outputs": [],
      "stateMutability": "nonpayable",
      "type": "function"
    },
    {
      "inputs": [
        {
          "internalType": "bytes32",
          "name": "_hash",
          "type": "bytes32"
        }
      ],
      "name": "releaseNFT",
      "outputs": [],
      "stateMutability": "nonpayable",
      "type": "function"
    }
  ],
  "bytecode": "0x60a060405234801561001057600080fd5b50604051610b25380380610b2583398101604081905261002f91610098565b600080546001600160a01b0319166001600160a01b0383161781556040516100569061008b565b604051809103906000f080158015610072573d6000803e3d6000fd5b5060601b6001600160601b031916608052506100c69050565b610164806109c183390190565b6000602082840312156100a9578081fd5b81516001600160a01b03811681146100bf578182fd5b9392505050565b60805160601c6108cf6100f26000396000818161023c0152818161044801526105af01526108cf6000f3fe608060405234801561001057600080fd5b506004361061004c5760003560e01c8063192d31f814610051578063245f7ee314610066578063d7fd2ee214610079578063e1dca5871461008c575b600080fd5b61006461005f366004610725565b61009f565b005b61006461007436600461070d565b61019a565b61006461008736600461070d565b610373565b61006461009a36600461070d565b6104e7565b6000546001600160a01b031633146100d25760405162461bcd60e51b81526004016100c990610862565b60405180910390fd5b6040805160a0810182526001600160a01b0386811682528581166020808401918252868316848601908152606085018781526000608087018181528d8252600194859052888220885181546001600160a01b0319908116918a169190911782559651958101805488169689169690961790955592516002850180549096169616959095179093559151600382015590516004909101559151909187917f198712a0c426006621f80ddc69b57f4738eb074fb311a799ad5159edd0b7528f9190a2505050505050565b6000546001600160a01b031633146101c45760405162461bcd60e51b81526004016100c990610862565b600081815260016020818152604092839020835160a08101855281546001600160a01b0390811682529382015484169281019290925260028101549092169281019290925260038101546060830152600401546080820181905261023a5760405162461bcd60e51b81526004016100c99061082b565b7f00000000000000000000000000000000000000000000000000000000000000006001600160a01b031663d67262e5826040015183606001516040518363ffffffff1660e01b815260040161029092919061079d565b600060405180830381600087803b1580156102aa57600080fd5b505af11580156102be573d6000803e3d6000fd5b5050505080604001516001600160a01b03166342842e0e30836020015184606001516040518463ffffffff1660e01b81526004016102fe93929190610779565b600060405180830381600087803b15801561031857600080fd5b505af115801561032c573d6000803e3d6000fd5b50505060009283525050600160208190526040822080546001600160a01b031990811682559181018054831690556002810180549092169091556003810182905560040155565b6000546001600160a01b0316331461039d5760405162461bcd60e51b81526004016100c990610862565b600081815260016020818152604092839020835160a08101855281546001600160a01b039081168083529483015481169382019390935260028201549092169382019390935260038301546060820152600490920154608083015233146104165760405162461bcd60e51b81526004016100c9906107e6565b60408082015160608301519151632142170760e11b815290916001600160a01b038316916342842e0e916104709133917f000000000000000000000000000000000000000000000000000000000000000091600401610779565b600060405180830381600087803b15801561048a57600080fd5b505af115801561049e573d6000803e3d6000fd5b5050506000848152600160208190526040808320600401919091555133925085917f19f04ce1d3989fc34fc4a07f747012a65f0092cf492e67204e1d5945daac889391a3505050565b6000546001600160a01b031633146105115760405162461bcd60e51b81526004016100c990610862565b6000818152600160205260409020546001600160a01b03166105455760405162461bcd60e51b81526004016100c9906107b6565b600081815260016020818152604092839020835160a08101855281546001600160a01b03908116825293820154841692810192909252600281015483168285018190526003820154606084018190526004928301546080850152945163d67262e560e01b815292947f00000000000000000000000000000000000000000000000000000000000000009094169363d67262e5936105e2930161079d565b600060405180830381600087803b1580156105fc57600080fd5b505af1158015610610573d6000803e3d6000fd5b505050604080830151835160608501519251632142170760e11b81526001600160a01b0390921693506342842e0e9261064f9230929190600401610779565b600060405180830381600087803b15801561066957600080fd5b505af115801561067d573d6000803e3d6000fd5b505050600083815260016020819052604080832080546001600160a01b03199081168255928101805484169055600281018054909316909255600382018390556004909101829055518492507fedf20a2c5b8dd9713d4a317b6c8717f5fb1f77bdadbc330caa6ced14f8d37dc69190a25050565b80356001600160a01b038116811461070857600080fd5b919050565b60006020828403121561071e578081fd5b5035919050565b600080600080600060a0868803121561073c578081fd5b8535945061074c602087016106f1565b935061075a604087016106f1565b9250610768606087016106f1565b949793965091946080013592915050565b6001600160a01b039384168152919092166020820152604081019190915260600190565b6001600160a01b03929092168252602082015260400190565b602080825260169082015275457363726f7720646f6573206e6f742065786973742160501b604082015260600190565b60208082526025908201527f596f7520617265206e6f7420616c6c6f77656420746f206c6f636b20796f7572604082015264204e46542160d81b606082015260800190565b6020808252601b908201527f4e465420686173206e6f74206265656e206c6f636b6564207570210000000000604082015260600190565b60208082526018908201527f596f7520617265206e6f74207468652072656c6179657221000000000000000060408201526060019056fea2646970667358221220c70a69739e3c855ab8796be88e8e852b7d6dd4d9c0a0a9dc3974eb3ca486630c64736f6c63430008000033608060405234801561001057600080fd5b50600080546001600160a01b03191633179055610132806100326000396000f3fe6080604052348015600f57600080fd5b506004361060285760003560e01c8063d67262e514602d575b600080fd5b603c603836600460a4565b603e565b005b600054604051632142170760e11b81526001600160a01b03808516926342842e0e9260709230921690869060040160d8565b600060405180830381600087803b158015608957600080fd5b505af1158015609c573d6000803e3d6000fd5b505050505050565b6000806040838503121560b5578182fd5b82356001600160a01b038116811460ca578283fd5b946020939093013593505050565b6001600160a01b03938416815291909216602082015260408101919091526060019056fea2646970667358221220d42800f914223a0390e43a71085f77b9ea10e2d629dd17dacbd425ee3ed6f2b364736f6c63430008000033",
  "linkReferences": {},
  "deployedLinkReferences": {}
}